:1000000022C0189518951895189518951895189553
:100010001895189518951895189518951895189578
:100020001895189518951895189518951895189568
:100030001895189518951895189518951895189558
:10004000189518951895B0E0AEE504E00C93B0E073
:10005000ADE50FE50C93B4E0A0E600E020E034E06D
:10006000A150B0400C93215030402223C9F73323D4
:10007000B9F7B0E0AAE300E00C93B0E0ABE300E036
:100080000C93B0E0A7E304E00C93B0E0A8E300E039
:100090000C93B0E0A4E300E00C93B0E0A5E300E033
:1000A0000C93B0E0A1E300E00C93B0E0A2E300E029
:1000B0000C93B0E0AFE400E00C93B0E0AEE409E0F4
:1000C0000C93B0E0ABE40CE90C93B0E0AAE40EE3CF
:1000D0000C93B0E0A9E500E10C93B0E0A8E50C9129
:1000E00004FFFBCFB0E0A8E50C9100610C93A8954C
:1000F000B0E0A1E60C9102600C93B0E0A1E60C9197
:10010000B0E0A1E61C9101FF1B7F01FD14601C9370
:10011000B0E0A1E60C9103FD05C0B0E0A1E60C91B2
:100120000B7F0C93B0E0A1E60C9102FF1EC0B0E083
:10013000A2E60C91B0E0A3E61C9123E630E00217A2
:10014000130794F4B0E0A2E60C91B0E0A3E61C9192
:10015000039509F413951C93B0E0A2E60C93B0E06C
:10016000A1E60C910B7F0C9308C0B0E0A2E600E082
:100170000C93B0E0A3E600E00C93B0E0A1E60C9194
:1001800004FD08C0B0E0A4E603E60C93B0E0A5E6E9
:1001900000E00C93B0E0A1E60C9100610C93B0E09C
:1001A000A1E60C9102FD1EC0B0E0A4E60C91B0E007
:1001B000A5E61C9123E630E00217130794F4B0E0A3
:1001C000A4E60C91B0E0A5E61C91039509F4139503
:1001D0001C93B0E0A4E60C93B0E0A1E60C9104609F
:1001E0000C9308C0B0E0A4E600E00C93B0E0A5E6F4
:1001F00000E00C93B0E0A1E60C9102FF06C0B0E075
:10020000A1E60C91077F0C9305C0B0E0A1E60C912C
:1002100008600C93B0E0A1E60C91B0E0A1E61C915F
:1002200001FF1B7F01FD14601C93B0E0A1E60C915F
:1002300003FD05C0B0E0A1E60C910B7F0C93B0E08C
:10024000A1E60C91B0E0A8E31C9102FF1B7F02FD28
:0A02500014601C93EDE6F0E0099441
:00000001FF
