:1000000022C0189518951895189518951895189553
:100010001895189518951895189518951895189578
:100020001895189518951895189518951895189568
:100030001895189518951895189518951895189558
:10004000189518951895B0E0AEE504E00C93B0E073
:10005000ADE50FE50C93B4E0A0E600E020E034E06D
:10006000A150B0400C93215030402223C9F73323D4
:10007000B9F7B0E0AAE300E00C93B0E0ABE300E036
:100080000C93B0E0A7E300E00C93B0E0A8E303E03A
:100090000C93B0E0A4E300E00C93B0E0A5E300E033
:1000A0000C93B0E0A1E300E60C93B0E0A2E300E023
:1000B0000C93B0E0AFE400E00C93B0E0AEE40AE0F3
:1000C0000C93B0E0ABE40EE40C93B0E0AAE40EE1D4
:1000D0000C93B0E0A9E500E10C93B0E0A8E50C9129
:1000E00004FFFBCFB0E0A8E50C9100610C93A8954C
:1000F000B0E0A1E60C9102600C93B0E0A1E60C9197
:10010000B0E0A1E61C9101FF1B7F01FD14601C9370
:10011000B0E0A6E30C9100FF05C0B0E0A1E60C91B1
:100120000B7F0C93B0E0A1E60C91077F0C93B0E03D
:10013000A1E60C91B0E0A1E61C9102FF1F7E02FD3A
:1001400010611C93B0E0A1E60C9104FF05C0B0E083
:10015000A2E30C9100620C93B0E0A1E60C9104FFC5
:1001600005C0B0E0A1E60C9108600C93B0E0A1E6F8
:100170000C91B0E0A1E61C9102FF1F7E02FD106110
:100180001C93B0E0A1E60C9104FF05C0B0E0A2E32F
:100190000C910F7B0C93B0E0A1E60C9104FF05C01D
:1001A000B0E0A1E60C9108600C93B0E0A1E60C91E0
:1001B000B0E0A1E61C9103FF1B7F03FD14601C93BC
:1001C000B0E0A1E60C91B0E0A1E61C9101FF1B7F1D
:1001D00001FD14601C93B0E0A6E30C9101FF05C083
:1001E000B0E0A1E60C910B7F0C93B0E0A1E60C917E
:1001F0000F7D0C93B0E0A1E60C91B0E0A1E61C915C
:1002000002FF1F7B02FD10641C93B0E0A1E60C917D
:1002100006FF05C0B0E0A2E30C910F7D0C93B0E0A7
:10022000A1E60C9106FF05C0B0E0A1E60C910062CA
:100230000C93B0E0A1E60C91B0E0A1E61C9102FFA6
:100240001F7B02FD10641C93B0E0A1E60C9106FF39
:1002500005C0B0E0A2E30C910F7B0C93B0E0A1E6E7
:100260000C9106FF05C0B0E0A1E60C9100620C9372
:10027000B0E0A1E60C91B0E0A1E61C9105FF1B7F68
:0C02800005FD14601C93EDE6F0E009940D
:00000001FF
